{
  "_format": "hh-sol-artifact-1",
  "contractName": "SchemaRegistry",
  "sourceName": "contracts/SchemaRegistry.sol",
  "abi": [
    {
      "inputs": [],
      "stateMutability": "nonpayable",
      "type": "constructor"
    },
    {
      "inputs": [],
      "name": "AlreadyExists",
      "type": "error"
    },
    {
      "anonymous": false,
      "inputs": [
        {
          "indexed": true,
          "internalType": "bytes32",
          "name": "uid",
          "type": "bytes32"
        },
        {
          "indexed": true,
          "internalType": "address",
          "name": "registerer",
          "type": "address"
        },
        {
          "components": [
            {
              "internalType": "bytes32",
              "name": "uid",
              "type": "bytes32"
            },
            {
              "internalType": "contract ISchemaResolver",
              "name": "resolver",
              "type": "address"
            },
            {
              "internalType": "bool",
              "name": "revocable",
              "type": "bool"
            },
            {
              "internalType": "string",
              "name": "schema",
              "type": "string"
            }
          ],
          "indexed": false,
          "internalType": "struct SchemaRecord",
          "name": "schema",
          "type": "tuple"
        }
      ],
      "name": "Registered",
      "type": "event"
    },
    {
      "anonymous": false,
      "inputs": [
        {
          "indexed": false,
          "internalType": "bytes32",
          "name": "uid",
          "type": "bytes32"
        }
      ],
      "name": "SchemaAlreadyExists",
      "type": "event"
    },
    {
      "anonymous": false,
      "inputs": [
        {
          "indexed": false,
          "internalType": "bytes32",
          "name": "uid",
          "type": "bytes32"
        },
        {
          "indexed": true,
          "internalType": "address",
          "name": "registerer",
          "type": "address"
        },
        {
          "components": [
            {
              "internalType": "bytes32",
              "name": "uid",
              "type": "bytes32"
            },
            {
              "internalType": "contract ISchemaResolver",
              "name": "resolver",
              "type": "address"
            },
            {
              "internalType": "bool",
              "name": "revocable",
              "type": "bool"
            },
            {
              "internalType": "string",
              "name": "schema",
              "type": "string"
            }
          ],
          "indexed": false,
          "internalType": "struct SchemaRecord",
          "name": "schemaRecord",
          "type": "tuple"
        }
      ],
      "name": "SchemaRegistered",
      "type": "event"
    },
    {
      "anonymous": false,
      "inputs": [
        {
          "indexed": true,
          "internalType": "address",
          "name": "sender",
          "type": "address"
        },
        {
          "indexed": false,
          "internalType": "string",
          "name": "schema",
          "type": "string"
        },
        {
          "indexed": false,
          "internalType": "contract ISchemaResolver",
          "name": "resolver",
          "type": "address"
        },
        {
          "indexed": false,
          "internalType": "bool",
          "name": "revocable",
          "type": "bool"
        }
      ],
      "name": "SchemaRegistrationAttempt",
      "type": "event"
    },
    {
      "anonymous": false,
      "inputs": [
        {
          "indexed": false,
          "internalType": "bytes32",
          "name": "uid",
          "type": "bytes32"
        },
        {
          "components": [
            {
              "internalType": "bytes32",
              "name": "uid",
              "type": "bytes32"
            },
            {
              "internalType": "contract ISchemaResolver",
              "name": "resolver",
              "type": "address"
            },
            {
              "internalType": "bool",
              "name": "revocable",
              "type": "bool"
            },
            {
              "internalType": "string",
              "name": "schema",
              "type": "string"
            }
          ],
          "indexed": false,
          "internalType": "struct SchemaRecord",
          "name": "schemaRecord",
          "type": "tuple"
        }
      ],
      "name": "SchemaRetrieved",
      "type": "event"
    },
    {
      "anonymous": false,
      "inputs": [
        {
          "indexed": false,
          "internalType": "bytes32",
          "name": "uid",
          "type": "bytes32"
        },
        {
          "indexed": false,
          "internalType": "string",
          "name": "schema",
          "type": "string"
        },
        {
          "indexed": false,
          "internalType": "contract ISchemaResolver",
          "name": "resolver",
          "type": "address"
        },
        {
          "indexed": false,
          "internalType": "bool",
          "name": "revocable",
          "type": "bool"
        }
      ],
      "name": "UIDCalculated",
      "type": "event"
    },
    {
      "inputs": [
        {
          "internalType": "bytes32",
          "name": "uid",
          "type": "bytes32"
        }
      ],
      "name": "getSchema",
      "outputs": [
        {
          "components": [
            {
              "internalType": "bytes32",
              "name": "uid",
              "type": "bytes32"
            },
            {
              "internalType": "contract ISchemaResolver",
              "name": "resolver",
              "type": "address"
            },
            {
              "internalType": "bool",
              "name": "revocable",
              "type": "bool"
            },
            {
              "internalType": "string",
              "name": "schema",
              "type": "string"
            }
          ],
          "internalType": "struct SchemaRecord",
          "name": "",
          "type": "tuple"
        }
      ],
      "stateMutability": "view",
      "type": "function"
    },
    {
      "inputs": [
        {
          "internalType": "string",
          "name": "schema",
          "type": "string"
        },
        {
          "internalType": "contract ISchemaResolver",
          "name": "resolver",
          "type": "address"
        },
        {
          "internalType": "bool",
          "name": "revocable",
          "type": "bool"
        }
      ],
      "name": "register",
      "outputs": [
        {
          "internalType": "bytes32",
          "name": "",
          "type": "bytes32"
        }
      ],
      "stateMutability": "nonpayable",
      "type": "function"
    },
    {
      "inputs": [],
      "name": "version",
      "outputs": [
        {
          "internalType": "string",
          "name": "",
          "type": "string"
        }
      ],
      "stateMutability": "view",
      "type": "function"
    }
  ],
  "bytecode": "0x60e0604052348015600f57600080fd5b506001608052600360a052600060c05260805160a05160c051610c5f61004b600039600060fe0152600060d50152600060ac0152610c5f6000f3fe608060405234801561001057600080fd5b50600436106100415760003560e01c806354fd4d501461004657806360d7a27814610064578063a2ea7c6e14610085575b600080fd5b61004e6100a5565b60405161005b9190610733565b60405180910390f35b610077610072366004610762565b610148565b60405190815260200161005b565b610098610093366004610810565b6103be565b60405161005b919061087c565b60606100d07f00000000000000000000000000000000000000000000000000000000000000006104e4565b6100f97f00000000000000000000000000000000000000000000000000000000000000006104e4565b6101227f00000000000000000000000000000000000000000000000000000000000000006104e4565b6040516020016101349392919061088f565b604051602081830303815290604052905090565b60003373ffffffffffffffffffffffffffffffffffffffff167f497fdf00c589719e6e2d60530e05645bf14f3569e7a4272e87846707fe2295c686868686604051610196949392919061096f565b60405180910390a2600060405180608001604052806000801b81526020018573ffffffffffffffffffffffffffffffffffffffff168152602001841515815260200187878080601f01602080910402602001604051908101604052809392919081815260200183838082843760009201829052509390945250929350915061021f9050826105a2565b90507f938f16121a032749dd4d624c95b6ef4e904faa592d752f88b02a2715f1bccb1481888888886040516102589594939291906109b1565b60405180910390a1600081815260208190526040902054156102d9576040518181527fb3118caaf7ead1c228690cf9eb93aaf796b6a4e6d00383e57183e785c79efef89060200160405180910390a16040517f23369fa600000000000000000000000000000000000000000000000000000000815260040160405180910390fd5b80825260008181526020818152604091829020845181559084015160018201805493860151151574010000000000000000000000000000000000000000027fffffffffffffffffffffff00000000000000000000000000000000000000000090941673ffffffffffffffffffffffffffffffffffffffff9092169190911792909217909155606083015183919060028201906103759082610acb565b50506040513391507ff9378a86e5be6a6a7f93b8361b1fd27e1cef321c904e339c4ea1465f4275fe1a906103ac9084908690610be4565b60405180910390a29695505050505050565b6040805160808101825260008082526020820181905291810191909152606080820152600082815260208181526040808320815160808101835281548152600182015473ffffffffffffffffffffffffffffffffffffffff8116948201949094527401000000000000000000000000000000000000000090930460ff1615159183019190915260028101805460608401919061045990610a29565b80601f016020809104026020016040519081016040528092919081815260200182805461048590610a29565b80156104d25780601f106104a7576101008083540402835291602001916104d2565b820191906000526020600020905b8154815290600101906020018083116104b557829003601f168201915b50505091909252509195945050505050565b606060006104f1836105e2565b600101905060008167ffffffffffffffff811115610511576105116109fa565b6040519080825280601f01601f19166020018201604052801561053b576020820181803683370190505b5090508181016020015b7fffffffffffffffffffffffffffffffffffffffffffffffffffffffffffffffff017f3031323334353637383961626364656600000000000000000000000000000000600a86061a8153600a850494508461054557509392505050565b60008160600151826020015183604001516040516020016105c593929190610bfd565b604051602081830303815290604052805190602001209050919050565b6000807a184f03e93ff9f4daa797ed6e38ed64bf6a1f010000000000000000831061062b577a184f03e93ff9f4daa797ed6e38ed64bf6a1f010000000000000000830492506040015b6d04ee2d6d415b85acef81000000008310610657576d04ee2d6d415b85acef8100000000830492506020015b662386f26fc10000831061067557662386f26fc10000830492506010015b6305f5e100831061068d576305f5e100830492506008015b61271083106106a157612710830492506004015b606483106106b3576064830492506002015b600a83106106bf576001015b92915050565b60005b838110156106e05781810151838201526020016106c8565b50506000910152565b600081518084526107018160208601602086016106c5565b601f017fffffffffffffffffffffffffffffffffffffffffffffffffffffffffffffffe0169290920160200192915050565b60208152600061074660208301846106e9565b9392505050565b8035801515811461075d57600080fd5b919050565b6000806000806060858703121561077857600080fd5b843567ffffffffffffffff81111561078f57600080fd5b8501601f810187136107a057600080fd5b803567ffffffffffffffff8111156107b757600080fd5b8760208284010111156107c957600080fd5b60209182019550935085013573ffffffffffffffffffffffffffffffffffffffff811681146107f757600080fd5b91506108056040860161074d565b905092959194509250565b60006020828403121561082257600080fd5b5035919050565b8051825273ffffffffffffffffffffffffffffffffffffffff6020820151166020830152604081015115156040830152600060608201516080606085015261087460808501826106e9565b949350505050565b6020815260006107466020830184610829565b600084516108a18184602089016106c5565b7f2e0000000000000000000000000000000000000000000000000000000000000090830190815284516108db8160018401602089016106c5565b7f2e000000000000000000000000000000000000000000000000000000000000006001929091019182015283516109198160028401602088016106c5565b0160020195945050505050565b8183528181602085013750600060208284010152600060207fffffffffffffffffffffffffffffffffffffffffffffffffffffffffffffffe0601f840116840101905092915050565b606081526000610983606083018688610926565b73ffffffffffffffffffffffffffffffffffffffff9490941660208301525090151560409091015292915050565b8581526080602082015260006109cb608083018688610926565b73ffffffffffffffffffffffffffffffffffffffff949094166040830152509015156060909101529392505050565b7f4e487b7100000000000000000000000000000000000000000000000000000000600052604160045260246000fd5b600181811c90821680610a3d57607f821691505b602082108103610a76577f4e487b7100000000000000000000000000000000000000000000000000000000600052602260045260246000fd5b50919050565b601f821115610ac657806000526020600020601f840160051c81016020851015610aa35750805b601f840160051c820191505b81811015610ac35760008155600101610aaf565b50505b505050565b815167ffffffffffffffff811115610ae557610ae56109fa565b610af981610af38454610a29565b84610a7c565b6020601f821160018114610b4b5760008315610b155750848201515b7fffffffffffffffffffffffffffffffffffffffffffffffffffffffffffffffff600385901b1c1916600184901b178455610ac3565b6000848152602081207fffffffffffffffffffffffffffffffffffffffffffffffffffffffffffffffe08516915b82811015610b995787850151825560209485019460019092019101610b79565b5084821015610bd557868401517fffffffffffffffffffffffffffffffffffffffffffffffffffffffffffffffff600387901b60f8161c191681555b50505050600190811b01905550565b8281526040602082015260006108746040830184610829565b60008451610c0f8184602089016106c5565b60609490941b7fffffffffffffffffffffffffffffffffffffffff000000000000000000000000169190930190815290151560f81b60148201526015019291505056fea164736f6c634300081b000a",
  "linkReferences": {},
  "deployedLinkReferences": {}
}